:100000000C945C000C946E000C946E000C946E00CA
:100010000C946E000C946E000C946E000C946E00A8
:100020000C946E000C946E000C946E000C946E0098
:100030000C946E000C946E000C946E000C946E0088
:100040000C9457010C946E000C946E000C946E008E
:100050000C946E000C946E000C946E000C946E0068
:100060000C946E000C946E00000000080002010069
:100070000003040700000000000000000000000072
:10008000250028002B0000000000240027002A0083
:10009000040404040404040402020202020203032E
:1000A0000303030301020408102040800102040836
:1000B000102001020408102011241FBECFEFD8E049
:1000C000DEBFCDBF21E0A0E0B1E001C01D92A131B3
:1000D000B207E1F70E94A1010C9440050C940000C6
:1000E00090E0FC01EC55FF4F249180579F4FFC019D
:1000F0008491882399F090E0880F991FFC01EA57BA
:10010000FF4FA591B491FC01E458FF4F8591949164
:100110008FB7F894EC91E22BEC938FBF089590E0A9
:10012000FC01E859FF4F2491FC01EC55FF4F34913D
:10013000FC01E057FF4FE491EE23C9F0222339F090
:10014000233001F1A8F4213019F1223029F1F0E037
:10015000EE0FFF1FE458FF4FA591B4918FB7F894AD
:10016000EC91611126C030953E233C938FBF0895DA
:100170002730A9F02830C9F0243049F78091800059
:100180008F7D03C0809180008F7780938000DFCFC8
:1001900084B58F7784BDDBCF84B58F7DFBCF809115
:1001A000B0008F778093B000D2CF8091B0008F7D68
:1001B000F9CF3E2BDACFCF93DF93EC0189E00E9499
:1001C0007000209731F460E089E0DF91CF910C94CA
:1001D0008F00CF3FD10511F461E0F6CFE1E7F0E009
:1001E000E491E33029F140F4E130B1F0E230D9F0AC
:1001F000C038D1058CF7E7CFE73021F1E83051F175
:10020000E430B1F780918000806280938000D093C9
:100210008B00C0938A0004C084B5806884BDC7BDCC
:10022000DF91CF91089584B5806284BDC8BDF8CFB9
:1002300080918000806880938000D0938900C09373
:100240008800EECF8091B00080688093B000C093AA
:10025000B300E6CF8091B00080628093B000C0937D
:10026000B400DECF3FB7F89480910D0190910E015C
:10027000A0910F01B091100126B5A89B05C02F3F9A
:1002800019F00196A11DB11D3FBFBA2FA92F982FBC
:100290008827BC01CD01620F711D811D911D42E0B7
:1002A000660F771F881F991F4A95D1F708951F92EF
:1002B0000F920FB60F9211242F933F938F939F931A
:1002C000AF93BF938091090190910A01A0910B0116
:1002D000B0910C013091080123E0230F2D3758F520
:1002E0000196A11DB11D20930801809309019093EF
:1002F0000A01A0930B01B0930C0180910D01909124
:100300000E01A0910F01B09110010196A11DB11D28
:1003100080930D0190930E01A0930F01B0931001F3
:10032000BF91AF919F918F913F912F910F900FBEF1
:100330000F901F90189526E8230F0296A11DB11D5E
:10034000D2CF789484B5826084BD84B5816084BD49
:1003500085B5826085BD85B5816085BD80916E0063
:10036000816080936E001092810080918100826094
:1003700080938100809181008160809381008091D1
:1003800080008160809380008091B10084608093C0
:10039000B1008091B00081608093B00080917A00BC
:1003A000846080937A0080917A00826080937A00E2
:1003B00080917A00816080937A0080917A008068D1
:1003C00080937A001092C10089E00E9470008AE058
:1003D0000E9470008BE00E94700020E4922E00E0EA
:1003E00012E030E0A32E30E0B32E8FB7F894C09027
:1003F0000901D0900A01E0900B01F0900C018FBF31
:100400008091040190910501A0910601B09107012E
:10041000A7019601281B390B4A0B5B0BCA01B901D6
:100420000E941C0420E030E04AE754E40E94740378
:100430002B013C0120E030E0A9010E946F03181657
:1004400044F09AE0492E97ED592E93E2692E9CE3F1
:10045000792EC0920401D0920501E0920601F0923B
:10046000070190927C0080917A00806480937A00EA
:1004700080917A0086FDFCCF809178009091790080
:10048000B801681B790B072E000C880B990B0E9492
:100490001E046B017C01209100013091010140910B
:1004A0000201509103010E94020320E030E040E08D
:1004B0005FE30E94D304A30192010E9474032B0105
:1004C0003C0120E030E040EC5FE3C701B6010E9450
:1004D000D3049B01AC01C301B2010E9403032B01B1
:1004E0003C01C0920001D0920101E0920201F09221
:1004F000030120E030E0A9010E94CE0418160CF0A0
:1005000051C0C301B2010E94E603362E872E20E0BF
:1005100030E0A901C701B6010E94CE0418160CF004
:1005200045C020E030E040E450E4C701B6010E943D
:100530006F0387FF46C060E08AE00E948F0060E0A2
:100540008BE00E948F0090E080E00E94DB000E9420
:1005500032016B017C018AE0482E512C612C712CF8
:100560000E9432016C197D098E099F09683E734013
:1005700081059105A8F331E0431A5108610871081B
:1005800048EEC40E43E0D41EE11CF11C411451049A
:100590006104710429F7A114B10409F426CF0E9463
:1005A000000023CFC301B2019058ADCF20E030E06E
:1005B00040E450ECC701B6010E94CE0418160CF4BA
:1005C000BACFC32DD82DCF3FD10519F014F0CFEFFE
:1005D000D0E020E030E0A901C301B2010E94CE04C6
:1005E000181654F461E08AE00E948F0060E08BE00E
:1005F0000E948F00CE01A9CF60E08AE00E948F00A8
:1006000061E0F5CF5058BB27AA270E941A030C942B
:1006100094040E94860438F00E948D0420F039F47E
:100620009F3F19F426F40C9483040EF4E095E7FB45
:100630000C947D04E92F0E94A50458F3BA176207B1
:1006400073078407950720F079F4A6F50C94C70486
:100650000EF4E0950B2EBA2FA02D0B01B9019001DD
:100660000C01CA01A0011124FF27591B99F0593F21
:1006700050F4503E68F11A16F040A22F232F342F69
:100680004427585FF3CF469537952795A795F040B7
:100690005395C9F77EF41F16BA0B620B730B840BCC
:1006A000BAF09150A1F0FF0FBB1F661F771F881F84
:1006B000C2F70EC0BA0F621F731F841F48F48795DC
:1006C00077956795B795F7959E3F08F0B0CF9395CE
:1006D000880F08F09927EE0F9795879508950E9447
:1006E000590408F481E008950E9488030C9494044E
:1006F0000E948D0458F00E94860440F029F45F3F68
:1007000029F00C947D0451110C94C8040C948304BA
:100710000E94A50468F39923B1F3552391F3951B27
:10072000550BBB27AA2762177307840738F09F5F12
:100730005F4F220F331F441FAA1FA9F335D00E2E7F
:100740003AF0E0E832D091505040E695001CCAF7EC
:100750002BD0FE2F29D0660F771F881FBB1F2617AF
:1007600037074807AB07B0E809F0BB0B802DBF0186
:10077000FF2793585F4F3AF09E3F510578F00C9455
:100780007D040C94C8045F3FE4F3983ED4F386954F
:1007900077956795B795F7959F5FC9F7880F911D76
:1007A0009695879597F90895E1E0660F771F881F62
:1007B000BB1F621773078407BA0720F0621B730B15
:1007C000840BBA0BEE1F88F7E09508950E94ED03A5
:1007D0006894B1110C94C80408950E94AD0488F087
:1007E0009F5798F0B92F9927B751B0F0E1F0660FF5
:1007F000771F881F991F1AF0BA95C9F714C0B13036
:1008000091F00E94C704B1E008950C94C704672FCB
:10081000782F8827B85F39F0B93FCCF38695779564
:100820006795B395D9F73EF490958095709561954D
:100830007F4F8F4F9F4F0895E89409C097FB3EF478
:1008400090958095709561957F4F8F4F9F4F99231D
:10085000A9F0F92F96E9BB279395F695879577959B
:100860006795B795F111F8CFFAF4BB0F11F460FF5B
:100870001BC06F5F7F4F8F4F9F4F16C0882311F0B3
:1008800096E911C0772321F09EE8872F762F05C0C7
:10089000662371F096E8862F70E060E02AF09A9562
:1008A000660F771F881FDAF7880F9695879597F957
:1008B0000895990F0008550FAA0BE0E8FEEF1616F1
:1008C0001706E807F907C0F012161306E407F50744
:1008D00098F0621B730B840B950B39F40A2661F0B8
:1008E000232B242B252B21F408950A2609F4A1405B
:1008F000A6958FEF811D811D089597F99F6780E868
:1009000070E060E008959FEF80EC089500240A9461
:100910001616170618060906089500240A941216DA
:100920001306140605060895092E0394000C11F40D
:10093000882352F0BB0F40F4BF2B11F460FF04C0BA
:100940006F5F7F4F8F4F9F4F089557FD9058440F13
:10095000551F59F05F3F71F04795880F97FB991F1E
:1009600061F09F3F79F087950895121613061406DB
:10097000551FF2CF4695F1DF08C016161706180668
:10098000991FF1CF86957105610508940895E89443
:10099000BB2766277727CB0197F908950E94590452
:1009A00008F48FEF08950E94E6040C9494040E94CA
:1009B000860438F00E948D0420F0952311F00C94E9
:1009C0007D040C94830411240C94C8040E94A50493
:1009D00070F3959FC1F3950F50E0551F629FF00192
:1009E000729FBB27F00DB11D639FAA27F00DB11DAB
:1009F000AA1F649F6627B00DA11D661F829F222734
:100A0000B00DA11D621F739FB00DA11D621F839FBA
:100A1000A00D611D221F749F3327A00D611D231F90
:100A2000849F600D211D822F762F6A2F11249F57DE
:100A300050409AF0F1F088234AF0EE0FFF1FBB1FE1
:100A4000661F771F881F91505040A9F79E3F5105A0
:100A500080F00C947D040C94C8045F3FE4F3983E4E
:100A6000D4F3869577956795B795F795E7959F5F4A
:100A7000C1F7FE2B880F911D9695879597F90895DC
:040A8000F894FFCF18
:00000001FF
